{
  "contractName": "EligibilityCheck",
  "abi": [
    {
      "anonymous": false,
      "inputs": [
        {
          "indexed": false,
          "internalType": "string",
          "name": "path",
          "type": "string"
        },
        {
          "indexed": false,
          "internalType": "bool",
          "name": "result",
          "type": "bool"
        },
        {
          "indexed": false,
          "internalType": "string",
          "name": "patient_ref",
          "type": "string"
        },
        {
          "indexed": false,
          "internalType": "string",
          "name": "insurer_ref",
          "type": "string"
        },
        {
          "indexed": false,
          "internalType": "string",
          "name": "coverage_ref",
          "type": "string"
        }
      ],
      "name": "EligibilityResult",
      "type": "event"
    },
    {
      "constant": false,
      "inputs": [
        {
          "internalType": "string",
          "name": "fhir_type",
          "type": "string"
        },
        {
          "internalType": "string",
          "name": "path",
          "type": "string"
        },
        {
          "internalType": "string",
          "name": "resource",
          "type": "string"
        }
      ],
      "name": "add_fhir_resource",
      "outputs": [
        {
          "internalType": "string",
          "name": "",
          "type": "string"
        }
      ],
      "payable": false,
      "stateMutability": "nonpayable",
      "type": "function"
    },
    {
      "constant": false,
      "inputs": [
        {
          "internalType": "string",
          "name": "path",
          "type": "string"
        },
        {
          "internalType": "string",
          "name": "resource",
          "type": "string"
        },
        {
          "internalType": "string",
          "name": "payor_ref",
          "type": "string"
        },
        {
          "internalType": "string",
          "name": "subscriber_ref",
          "type": "string"
        },
        {
          "internalType": "uint256",
          "name": "coverage_start",
          "type": "uint256"
        },
        {
          "internalType": "uint256",
          "name": "coverage_end",
          "type": "uint256"
        }
      ],
      "name": "add_coverage_resource",
      "outputs": [
        {
          "internalType": "string",
          "name": "",
          "type": "string"
        }
      ],
      "payable": false,
      "stateMutability": "nonpayable",
      "type": "function"
    },
    {
      "constant": false,
      "inputs": [
        {
          "internalType": "string",
          "name": "path",
          "type": "string"
        },
        {
          "internalType": "string",
          "name": "resource",
          "type": "string"
        },
        {
          "internalType": "string",
          "name": "insurer_ref",
          "type": "string"
        },
        {
          "internalType": "string",
          "name": "patient_ref",
          "type": "string"
        },
        {
          "internalType": "string",
          "name": "coverage_ref",
          "type": "string"
        },
        {
          "internalType": "uint256",
          "name": "coverage_date",
          "type": "uint256"
        }
      ],
      "name": "check_eligibility",
      "outputs": [
        {
          "internalType": "string",
          "name": "",
          "type": "string"
        }
      ],
      "payable": false,
      "stateMutability": "nonpayable",
      "type": "function"
    },
    {
      "constant": true,
      "inputs": [
        {
          "internalType": "string",
          "name": "a",
          "type": "string"
        },
        {
          "internalType": "string",
          "name": "b",
          "type": "string"
        }
      ],
      "name": "compareStrings",
      "outputs": [
        {
          "internalType": "bool",
          "name": "",
          "type": "bool"
        }
      ],
      "payable": false,
      "stateMutability": "pure",
      "type": "function"
    }
  ],
  "bytecode": "0x608060405234801561001057600080fd5b50611bb9806100206000396000f3fe608060405234801561001057600080fd5b506004361061004c5760003560e01c806364741b2314610051578063699c82191461035e578063a9fd1883146106f8578063bed34bba1461095a575b600080fd5b6102e3600480360360c081101561006757600080fd5b810190808035906020019064010000000081111561008457600080fd5b82018360208201111561009657600080fd5b803590602001918460018302840111640100000000831117156100b857600080fd5b91908080601f016020809104026020016040519081016040528093929190818152602001838380828437600081840152601f19601f8201169050808301925050505050505091929192908035906020019064010000000081111561011b57600080fd5b82018360208201111561012d57600080fd5b8035906020019184600183028401116401000000008311171561014f57600080fd5b91908080601f016020809104026020016040519081016040528093929190818152602001838380828437600081840152601f19601f820116905080830192505050505050509192919290803590602001906401000000008111156101b257600080fd5b8201836020820111156101c457600080fd5b803590602001918460018302840111640100000000831117156101e657600080fd5b91908080601f016020809104026020016040519081016040528093929190818152602001838380828437600081840152601f19601f8201169050808301925050505050505091929192908035906020019064010000000081111561024957600080fd5b82018360208201111561025b57600080fd5b8035906020019184600183028401116401000000008311171561027d57600080fd5b91908080601f016020809104026020016040519081016040528093929190818152602001838380828437600081840152601f19601f8201169050808301925050505050505091929192908035906020019092919080359060200190929190505050610ac4565b6040518080602001828103825283818151815260200191508051906020019080838360005b83811015610323578082015181840152602081019050610308565b50505050905090810190601f1680156103505780820380516001836020036101000a031916815260200191505b509250505060405180910390f35b61067d600480360360c081101561037457600080fd5b810190808035906020019064010000000081111561039157600080fd5b8201836020820111156103a357600080fd5b803590602001918460018302840111640100000000831117156103c557600080fd5b91908080601f016020809104026020016040519081016040528093929190818152602001838380828437600081840152601f19601f8201169050808301925050505050505091929192908035906020019064010000000081111561042857600080fd5b82018360208201111561043a57600080fd5b8035906020019184600183028401116401000000008311171561045c57600080fd5b91908080601f016020809104026020016040519081016040528093929190818152602001838380828437600081840152601f19601f820116905080830192505050505050509192919290803590602001906401000000008111156104bf57600080fd5b8201836020820111156104d157600080fd5b803590602001918460018302840111640100000000831117156104f357600080fd5b91908080601f016020809104026020016040519081016040528093929190818152602001838380828437600081840152601f19601f8201169050808301925050505050505091929192908035906020019064010000000081111561055657600080fd5b82018360208201111561056857600080fd5b8035906020019184600183028401116401000000008311171561058a57600080fd5b91908080601f016020809104026020016040519081016040528093929190818152602001838380828437600081840152601f19601f820116905080830192505050505050509192919290803590602001906401000000008111156105ed57600080fd5b8201836020820111156105ff57600080fd5b8035906020019184600183028401116401000000008311171561062157600080fd5b91908080601f016020809104026020016040519081016040528093929190818152602001838380828437600081840152601f19601f82011690508083019250505050505050919291929080359060200190929190505050610c66565b6040518080602001828103825283818151815260200191508051906020019080838360005b838110156106bd5780820151818401526020810190506106a2565b50505050905090810190601f1680156106ea5780820380516001836020036101000a031916815260200191505b509250505060405180910390f35b6108df6004803603606081101561070e57600080fd5b810190808035906020019064010000000081111561072b57600080fd5b82018360208201111561073d57600080fd5b8035906020019184600183028401116401000000008311171561075f57600080fd5b91908080601f016020809104026020016040519081016040528093929190818152602001838380828437600081840152601f19601f820116905080830192505050505050509192919290803590602001906401000000008111156107c257600080fd5b8201836020820111156107d457600080fd5b803590602001918460018302840111640100000000831117156107f657600080fd5b91908080601f016020809104026020016040519081016040528093929190818152602001838380828437600081840152601f19601f8201169050808301925050505050505091929192908035906020019064010000000081111561085957600080fd5b82018360208201111561086b57600080fd5b8035906020019184600183028401116401000000008311171561088d57600080fd5b91908080601f016020809104026020016040519081016040528093929190818152602001838380828437600081840152601f19601f8201169050808301925050505050505091929192905050506116a0565b6040518080602001828103825283818151815260200191508051906020019080838360005b8381101561091f578082015181840152602081019050610904565b50505050905090810190601f16801561094c5780820380516001836020036101000a031916815260200191505b509250505060405180910390f35b610aaa6004803603604081101561097057600080fd5b810190808035906020019064010000000081111561098d57600080fd5b82018360208201111561099f57600080fd5b803590602001918460018302840111640100000000831117156109c157600080fd5b91908080601f016020809104026020016040519081016040528093929190818152602001838380828437600081840152601f19601f82011690508083019250505050505050919291929080359060200190640100000000811115610a2457600080fd5b820183602082011115610a3657600080fd5b80359060200191846001830284011164010000000083111715610a5857600080fd5b91908080601f016020809104026020016040519081016040528093929190818152602001838380828437600081840152601f19601f8201169050808301925050505050505091929192905050506118c3565b604051808215151515815260200191505060405180910390f35b6060610ace6119b2565b86816020018190525085816040018190525084816060018190525083816080018181525050828160a001818152505060018160c0019015159081151581525050806001896040518082805190602001908083835b60208310610b455780518252602082019150602081019050602083039250610b22565b6001836020036101000a03801982511681845116808217855250505050505090500191505090815260200160405180910390206000820151816000019080519060200190610b949291906119f1565b506020820151816001019080519060200190610bb19291906119f1565b506040820151816002019080519060200190610bce9291906119f1565b506060820151816003019080519060200190610beb9291906119f1565b506080820151816004015560a0820151816005015560c08201518160060160006101000a81548160ff0219169083151502179055509050506040518060400160405280601581526020017f7b27737461747573273a202773756363657373277d00000000000000000000008152509150509695505050505050565b606060008090506060604051806020016040528060008152509050610d8c6000876040518082805190602001908083835b60208310610cba5780518252602082019150602081019050602083039250610c97565b6001836020036101000a03801982511681845116808217855250505050505090500191505090815260200160405180910390208054600181600116156101000203166002900480601f016020809104026020016040519081016040528092919081815260200182805460018160011615610100020316600290048015610d815780601f10610d5657610100808354040283529160200191610d81565b820191906000526020600020905b815481529060010190602001808311610d6457829003601f168201915b5050505050826118c3565b80610e9e5750610e9d6002886040518082805190602001908083835b60208310610dcb5780518252602082019150602081019050602083039250610da8565b6001836020036101000a03801982511681845116808217855250505050505090500191505090815260200160405180910390208054600181600116156101000203166002900480601f016020809104026020016040519081016040528092919081815260200182805460018160011615610100020316600290048015610e925780601f10610e6757610100808354040283529160200191610e92565b820191906000526020600020905b815481529060010190602001808311610e7557829003601f168201915b5050505050826118c3565b5b80610f2057506001856040518082805190602001908083835b60208310610eda5780518252602082019150602081019050602083039250610eb7565b6001836020036101000a038019825116818451168082178552505050505050905001915050908152602001604051809103902060060160009054906101000a900460ff16155b15611136577fb84c9a0973c7ae13eb748fe41c2bc2f559f1c30c784b1a3d49ca22b9e6df5a5a8983888a8960405180806020018615151515815260200180602001806020018060200185810385528a818151815260200191508051906020019080838360005b83811015610fa1578082015181840152602081019050610f86565b50505050905090810190601f168015610fce5780820380516001836020036101000a031916815260200191505b50858103845288818151815260200191508051906020019080838360005b83811015611007578082015181840152602081019050610fec565b50505050905090810190601f1680156110345780820380516001836020036101000a031916815260200191505b50858103835287818151815260200191508051906020019080838360005b8381101561106d578082015181840152602081019050611052565b50505050905090810190601f16801561109a5780820380516001836020036101000a031916815260200191505b50858103825286818151815260200191508051906020019080838360005b838110156110d35780820151818401526020810190506110b8565b50505050905090810190601f1680156111005780820380516001836020036101000a031916815260200191505b50995050505050505050505060405180910390a1604051806060016040528060398152602001611b4c6039913992505050611696565b60606001866040518082805190602001908083835b6020831061116e578051825260208201915060208101905060208303925061114b565b6001836020036101000a03801982511681845116808217855250505050505090500191505090815260200160405180910390206002018054600181600116156101000203166002900480601f0160208091040260200160405190810160405280929190818152602001828054600181600116156101000203166002900480156112385780601f1061120d57610100808354040283529160200191611238565b820191906000526020600020905b81548152906001019060200180831161121b57829003601f168201915b5050505050905060606001876040518082805190602001908083835b602083106112775780518252602082019150602081019050602083039250611254565b6001836020036101000a03801982511681845116808217855250505050505090500191505090815260200160405180910390206003018054600181600116156101000203166002900480601f0160208091040260200160405190810160405280929190818152602001828054600181600116156101000203166002900480156113415780601f1061131657610100808354040283529160200191611341565b820191906000526020600020905b81548152906001019060200180831161132457829003601f168201915b5050505050905060006001886040518082805190602001908083835b60208310611380578051825260208201915060208101905060208303925061135d565b6001836020036101000a038019825116818451168082178552505050505050905001915050908152602001604051809103902060040154905060006001896040518082805190602001908083835b602083106113f157805182526020820191506020810190506020830392506113ce565b6001836020036101000a03801982511681845116808217855250505050505090500191505090815260200160405180910390206005015490506114348b856118c3565b801561144657506114458a846118c3565b5b80156114525750818810155b801561145e5750808811155b1561146857600195505b7fb84c9a0973c7ae13eb748fe41c2bc2f559f1c30c784b1a3d49ca22b9e6df5a5a8d878c8e8d60405180806020018615151515815260200180602001806020018060200185810385528a818151815260200191508051906020019080838360005b838110156114e45780820151818401526020810190506114c9565b50505050905090810190601f1680156115115780820380516001836020036101000a031916815260200191505b50858103845288818151815260200191508051906020019080838360005b8381101561154a57808201518184015260208101905061152f565b50505050905090810190601f1680156115775780820380516001836020036101000a031916815260200191505b50858103835287818151815260200191508051906020019080838360005b838110156115b0578082015181840152602081019050611595565b50505050905090810190601f1680156115dd5780820380516001836020036101000a031916815260200191505b50858103825286818151815260200191508051906020019080838360005b838110156116165780820151818401526020810190506115fb565b50505050905090810190601f1680156116435780820380516001836020036101000a031916815260200191505b50995050505050505050505060405180910390a16040518060400160405280601581526020017f7b27737461747573273a202773756363657373277d000000000000000000000081525096505050505050505b9695505050505050565b60606116e1846040518060400160405280600781526020017f50617469656e74000000000000000000000000000000000000000000000000008152506118c3565b156117a157816000846040518082805190602001908083835b6020831061171d57805182526020820191506020810190506020830392506116fa565b6001836020036101000a03801982511681845116808217855250505050505090500191505090815260200160405180910390209080519060200190611763929190611a71565b506040518060400160405280601581526020017f7b27737461747573273a202773756363657373277d000000000000000000000081525090506118bc565b6117e0846040518060400160405280600c81526020017f4f7267616e697a6174696f6e00000000000000000000000000000000000000008152506118c3565b156118a057816002846040518082805190602001908083835b6020831061181c57805182526020820191506020810190506020830392506117f9565b6001836020036101000a03801982511681845116808217855250505050505090500191505090815260200160405180910390209080519060200190611862929190611a71565b506040518060400160405280601581526020017f7b27737461747573273a202773756363657373277d000000000000000000000081525090506118bc565b604051806060016040528060358152602001611b176035913990505b9392505050565b6000816040516020018082805190602001908083835b602083106118fc57805182526020820191506020810190506020830392506118d9565b6001836020036101000a03801982511681845116808217855250505050505090500191505060405160208183030381529060405280519060200120836040516020018082805190602001908083835b6020831061196e578051825260208201915060208101905060208303925061194b565b6001836020036101000a0380198251168184511680821785525050505050509050019150506040516020818303038152906040528051906020012014905092915050565b6040518060e001604052806060815260200160608152602001606081526020016060815260200160008152602001600081526020016000151581525090565b828054600181600116156101000203166002900490600052602060002090601f016020900481019282601f10611a3257805160ff1916838001178555611a60565b82800160010185558215611a60579182015b82811115611a5f578251825591602001919060010190611a44565b5b509050611a6d9190611af1565b5090565b828054600181600116156101000203166002900490600052602060002090601f016020900481019282601f10611ab257805160ff1916838001178555611ae0565b82800160010185558215611ae0579182015b82811115611adf578251825591602001919060010190611ac4565b5b509050611aed9190611af1565b5090565b611b1391905b80821115611b0f576000816000905550600101611af7565b5090565b9056fe7b27737461747573273a20276661696c6564202d20756e737570706f727465642046484952207265736f757263652074797065277d7b27737461747573273a20276661696c757265202d20636f756c64206e6f7420726574726965766520616c6c207265666572656e636573277da265627a7a7231582055806daa7233f1450820a74c2af886595e6fed15b420a3813c08a1030e213fbf64736f6c63430005100032",
  "source": "pragma solidity ^0.5.0;\n\ncontract EligibilityCheck {\n\n    struct Coverage {\n        string path;\n        string data;\n        string payor_ref;\n        string subscriber_ref;\n        uint coverage_start;\n        uint coverage_end;\n        bool is_valid;\n    }\n\n    mapping (string => string) patients;\n    mapping (string => Coverage) coverages;\n    mapping (string => string) organizations;\n    \n    event EligibilityResult(string path, bool result, string patient_ref, string insurer_ref, string coverage_ref);\n\n   /* \n    * Add a Patient or Organization FHIR resource to the contract data.\n    * \n    * fhir_type - string - FHIR type of the resource\n    * path - string - FHIR path of the resource, e.g. /Patient/001\n    * resource - string - the string representation of the FHIR resource\n    */\n    function add_fhir_resource(string memory fhir_type, string memory path, \n                               string memory resource) public returns (string memory) {\n        \n        if (compareStrings(fhir_type, 'Patient')) {\n            patients[path] = resource;\n            return \"{'status': 'success'}\";\n        } else if (compareStrings(fhir_type, 'Organization')) {\n            organizations[path] = resource;\n            return \"{'status': 'success'}\";\n        } else {\n            return \"{'status': 'failed - unsupported FHIR resource type'}\";\n        }\n    }\n\n   /* \n    * Add a Coverage FHIR resource to the contract data.\n    *\n    * This function requires that the Coverage resource be pre-parsed\n    * at the client into payor_ref, subscriber_ref, coverage_start, \n    * and coverage_end parameters.\n    *\n    * path - string - FHIR path of the resource, e.g. /Coverage/001\n    * resource - string - the string representation of the FHIR resource\n    * payor_ref - string - coverage.payor[0].reference\n    * subscriber_ref - string - coverage.subscriber.reference\n    * coverage_start - uint - coverage.period.start converted to a timestamp\n    * coverage_end - unit - coverage.period.end converted to a timestamp\n    */\n    function add_coverage_resource(string memory path, string memory resource, \n                                   string memory payor_ref, string memory subscriber_ref, \n                                   uint coverage_start, uint coverage_end) public returns (string memory) {\n        \n        Coverage memory coverage;\n        coverage.data = resource;\n        coverage.payor_ref = payor_ref;\n        coverage.subscriber_ref = subscriber_ref;\n        coverage.coverage_start = coverage_start;\n        coverage.coverage_end = coverage_end;\n        coverage.is_valid = true;\n\n        coverages[path] = coverage;\n\n        return \"{'status': 'success'}\";\n    }\n\n   /* \n    * From a CoverageEligibilityRequest FHIR resource, create an  \n    * EligibilityResult event based on the available resource info \n    * in the stored contract data.\n    *\n    * This function requires that the CoverageEligibilityRequest resource\n    * be pre-parsed at the client into insurer_ref, patient_ref, coverage_ref \n    * and coverage_date parameters.\n    *\n    * path - string - FHIR path of the resource, e.g. /Coverage/001\n    * resource - string - the string representation of the FHIR resource\n    * insurer_ref - string - CoverageEligibilityRequest insurer.reference\n    * patient_ref - string - CoverageEligibilityRequest patient.reference\n    * coverage_ref - string - CoverageEligibilityRequest insurance[0].coverage\n    * coverage_date - unit - timestamp of the CoverageEligibilityRequest created\n    */\n    function check_eligibility(string memory path, string memory resource, \n                               string memory insurer_ref, string memory patient_ref, \n                               string memory coverage_ref, uint coverage_date) public returns (string memory) {\n        bool result = false;\n        string memory empty = \"\";\n\n        if (compareStrings(patients[patient_ref], empty) || \n            compareStrings(organizations[insurer_ref], empty) || \n            !coverages[coverage_ref].is_valid) {\n            emit EligibilityResult(path, result, patient_ref, insurer_ref, coverage_ref);\n            return \"{'status': 'failure - could not retrieve all references'}\";\n        }\n\n        // At this point we've found the referenced objects; make sure they contain the correct results:\n        // match the Coverage payor reference with the CoverageEligibilityRequest insurer.reference\n        // match the Coverage subscriber patient reference with the CoverageEligibilityRequest patient.reference\n        // match the Coverage period with the CoverageEligibilityRequest created date\n        string memory coverage_payor_ref = coverages[coverage_ref].payor_ref;\n        string memory coverage_subscriber_ref = coverages[coverage_ref].subscriber_ref;\n        uint coverage_start = coverages[coverage_ref].coverage_start;\n        uint coverage_end = coverages[coverage_ref].coverage_end;\n        if (compareStrings(insurer_ref, coverage_payor_ref) &&\n            compareStrings(patient_ref, coverage_subscriber_ref) &&\n            coverage_date >= coverage_start && coverage_date <= coverage_end) {\n            result = true;\n        }\n\n        emit EligibilityResult(path, result, patient_ref, insurer_ref, coverage_ref);\n        return \"{'status': 'success'}\";\n    }\n\n   /* \n    * From https://ethereum.stackexchange.com/questions/30912/how-to-compare-strings-in-solidity/82739\n    */\n    function compareStrings(string memory a, string memory b) public pure returns (bool) {\n        return (keccak256(abi.encodePacked((a))) == keccak256(abi.encodePacked((b))));\n    }\n}",
  "sourcePath": "/Users/ccorley@us.ibm.com/Documents/github/connect-contracts/ethereum/eligibility/contracts/EligibiityCheck.sol",
  "compiler": {
    "name": "solc",
    "version": "0.5.16+commit.9c3226ce.Emscripten.clang"
  },
  "schemaVersion": "3.4.2",
  "updatedAt": "2021-08-27T13:19:07.093Z",
  "networkType": "ethereum",
  "devdoc": {
    "methods": {}
  },
  "userdoc": {
    "methods": {}
  }
}